{
  "contractName": "Auction",
  "abi": [
    {
      "inputs": [
        {
          "internalType": "address payable",
          "name": "_beneficiary",
          "type": "address"
        },
        {
          "internalType": "uint256",
          "name": "_biddingTime",
          "type": "uint256"
        }
      ],
      "payable": false,
      "stateMutability": "nonpayable",
      "type": "constructor"
    },
    {
      "anonymous": false,
      "inputs": [
        {
          "indexed": false,
          "internalType": "address",
          "name": "winner",
          "type": "address"
        },
        {
          "indexed": false,
          "internalType": "uint256",
          "name": "amount",
          "type": "uint256"
        }
      ],
      "name": "AuctionEnded",
      "type": "event"
    },
    {
      "anonymous": false,
      "inputs": [
        {
          "indexed": false,
          "internalType": "address",
          "name": "bidder",
          "type": "address"
        },
        {
          "indexed": false,
          "internalType": "uint256",
          "name": "amount",
          "type": "uint256"
        }
      ],
      "name": "HighestBidIncreased",
      "type": "event"
    },
    {
      "constant": true,
      "inputs": [],
      "name": "auctionStart",
      "outputs": [
        {
          "internalType": "uint256",
          "name": "",
          "type": "uint256"
        }
      ],
      "payable": false,
      "stateMutability": "view",
      "type": "function"
    },
    {
      "constant": true,
      "inputs": [],
      "name": "beneficiary",
      "outputs": [
        {
          "internalType": "address payable",
          "name": "",
          "type": "address"
        }
      ],
      "payable": false,
      "stateMutability": "view",
      "type": "function"
    },
    {
      "constant": true,
      "inputs": [],
      "name": "biddingTime",
      "outputs": [
        {
          "internalType": "uint256",
          "name": "",
          "type": "uint256"
        }
      ],
      "payable": false,
      "stateMutability": "view",
      "type": "function"
    },
    {
      "constant": true,
      "inputs": [],
      "name": "ended",
      "outputs": [
        {
          "internalType": "bool",
          "name": "",
          "type": "bool"
        }
      ],
      "payable": false,
      "stateMutability": "view",
      "type": "function"
    },
    {
      "constant": true,
      "inputs": [],
      "name": "highestBid",
      "outputs": [
        {
          "internalType": "uint256",
          "name": "",
          "type": "uint256"
        }
      ],
      "payable": false,
      "stateMutability": "view",
      "type": "function"
    },
    {
      "constant": true,
      "inputs": [],
      "name": "highestBidder",
      "outputs": [
        {
          "internalType": "address",
          "name": "",
          "type": "address"
        }
      ],
      "payable": false,
      "stateMutability": "view",
      "type": "function"
    },
    {
      "constant": false,
      "inputs": [],
      "name": "bid",
      "outputs": [],
      "payable": true,
      "stateMutability": "payable",
      "type": "function"
    },
    {
      "constant": false,
      "inputs": [],
      "name": "withdraw",
      "outputs": [
        {
          "internalType": "bool",
          "name": "",
          "type": "bool"
        }
      ],
      "payable": false,
      "stateMutability": "nonpayable",
      "type": "function"
    },
    {
      "constant": false,
      "inputs": [],
      "name": "auctionEnd",
      "outputs": [],
      "payable": false,
      "stateMutability": "nonpayable",
      "type": "function"
    }
  ],
  "bytecode": "0x608060405234801561001057600080fd5b506040516109bd3803806109bd8339818101604052604081101561003357600080fd5b810190808051906020019092919080519060200190929190505050816000806101000a81548173ffffffffffffffffffffffffffffffffffffffff021916908373ffffffffffffffffffffffffffffffffffffffff16021790555080600281905550426001819055505050610910806100ad6000396000f3fe6080604052600436106100865760003560e01c80633ccfd60b116100595780633ccfd60b146101325780634f245ef71461016157806391f901571461018c578063d074a38d146101e3578063d57bde791461020e57610086565b806312fa6feb1461008b5780631998aeef146100ba5780632a24f46c146100c457806338af3eed146100db575b600080fd5b34801561009757600080fd5b506100a0610239565b604051808215151515815260200191505060405180910390f35b6100c261024c565b005b3480156100d057600080fd5b506100d9610547565b005b3480156100e757600080fd5b506100f061075a565b604051808273ffffffffffffffffffffffffffffffffffffffff1673ffffffffffffffffffffffffffffffffffffffff16815260200191505060405180910390f35b34801561013e57600080fd5b5061014761077f565b604051808215151515815260200191505060405180910390f35b34801561016d57600080fd5b506101766108a3565b6040518082815260200191505060405180910390f35b34801561019857600080fd5b506101a16108a9565b604051808273ffffffffffffffffffffffffffffffffffffffff1673ffffffffffffffffffffffffffffffffffffffff16815260200191505060405180910390f35b3480156101ef57600080fd5b506101f86108cf565b6040518082815260200191505060405180910390f35b34801561021a57600080fd5b506102236108d5565b6040518082815260200191505060405180910390f35b600660009054906101000a900460ff1681565b600254600154014211156102c8576040517f08c379a00000000000000000000000000000000000000000000000000000000081526004018080602001828103825260188152602001807f74696d65206c696d69742065786563646564206572726f72000000000000000081525060200191505060405180910390fd5b600354341161033f576040517f08c379a00000000000000000000000000000000000000000000000000000000081526004018080602001828103825260148152602001807f6c6f772062696420616d6f756e74206572726f7200000000000000000000000081525060200191505060405180910390fd5b60001515600660009054906101000a900460ff161515146103c8576040517f08c379a00000000000000000000000000000000000000000000000000000000081526004018080602001828103825260138152602001807f61756374696f6e20656e646564206572726f720000000000000000000000000081525060200191505060405180910390fd5b600073ffffffffffffffffffffffffffffffffffffffff16600460009054906101000a900473ffffffffffffffffffffffffffffffffffffffff1673ffffffffffffffffffffffffffffffffffffffff161461046e57600354600560003373ffffffffffffffffffffffffffffffffffffffff1673ffffffffffffffffffffffffffffffffffffffff168152602001908152602001600020600082825401925050819055505b33600460006101000a81548173ffffffffffffffffffffffffffffffffffffffff021916908373ffffffffffffffffffffffffffffffffffffffff160217905550346003819055507ff4757a49b326036464bec6fe419a4ae38c8a02ce3e68bf0809674f6aab8ad300600460009054906101000a900473ffffffffffffffffffffffffffffffffffffffff16600354604051808373ffffffffffffffffffffffffffffffffffffffff1673ffffffffffffffffffffffffffffffffffffffff1681526020018281526020019250505060405180910390a1565b600254600154014211156105c3576040517f08c379a00000000000000000000000000000000000000000000000000000000081526004018080602001828103825260188152602001807f74696d65206c696d69742065786563646564206572726f72000000000000000081525060200191505060405180910390fd5b60001515600660009054906101000a900460ff1615151461064c576040517f08c379a00000000000000000000000000000000000000000000000000000000081526004018080602001828103825260138152602001807f61756374696f6e20656e646564206572726f720000000000000000000000000081525060200191505060405180910390fd5b6001600660006101000a81548160ff0219169083151502179055507fdaec4582d5d9595688c8c98545fdd1c696d41c6aeaeb636737e84ed2f5c00eda600460009054906101000a900473ffffffffffffffffffffffffffffffffffffffff16600354604051808373ffffffffffffffffffffffffffffffffffffffff1673ffffffffffffffffffffffffffffffffffffffff1681526020018281526020019250505060405180910390a16000809054906101000a900473ffffffffffffffffffffffffffffffffffffffff1673ffffffffffffffffffffffffffffffffffffffff166108fc6003549081150290604051600060405180830381858888f193505050501561075857600080fd5b565b6000809054906101000a900473ffffffffffffffffffffffffffffffffffffffff1681565b600080600560003373ffffffffffffffffffffffffffffffffffffffff1673ffffffffffffffffffffffffffffffffffffffff168152602001908152602001600020549050600081111561089a576000600560003373ffffffffffffffffffffffffffffffffffffffff1673ffffffffffffffffffffffffffffffffffffffff168152602001908152602001600020819055503373ffffffffffffffffffffffffffffffffffffffff166108fc829081150290604051600060405180830381858888f193505050506108995780600560003373ffffffffffffffffffffffffffffffffffffffff1673ffffffffffffffffffffffffffffffffffffffff1681526020019081526020016000208190555060009150506108a0565b5b60019150505b90565b60015481565b600460009054906101000a900473ffffffffffffffffffffffffffffffffffffffff1681565b60025481565b6003548156fea265627a7a723158206f70f3ce76dd8bbf6a7152f620ea9825c44a52c2af159ce4988db38609591ba364736f6c63430005100032",
  "source": "pragma solidity >=0.5.16 <0.8.0;\r\n\r\ncontract Auction{\r\n    address payable public beneficiary; // highest bid amount will go to this account\r\n    uint public auctionStart; //auction start time\r\n    uint public biddingTime; // \r\n    uint public highestBid;\r\n    address public highestBidder;\r\n    mapping(address => uint) pendingReturn; // maps bidder's address to bidder's address\r\n    bool public ended; // mark end of the auction\r\n\r\n    event HighestBidIncreased(address bidder, uint amount);\r\n    event AuctionEnded(address winner, uint amount);\r\n\r\n    constructor(address payable _beneficiary, uint _biddingTime) public {\r\n        beneficiary = _beneficiary;\r\n        biddingTime = _biddingTime;\r\n        auctionStart = block.timestamp;\r\n    }\r\n\r\n    function bid() payable  public {\r\n        require(block.timestamp <= auctionStart + biddingTime, \"time limit execded error\");\r\n        require(msg.value > highestBid, \"low bid amount error\");\r\n        require(ended==false, \"auction ended error\");\r\n        if(highestBidder != address(0)){\r\n            pendingReturn[msg.sender] += highestBid;\r\n        }\r\n\r\n        highestBidder = msg.sender;\r\n        highestBid = msg.value;\r\n        emit HighestBidIncreased(highestBidder, highestBid);  \r\n    }\r\n\r\n    function withdraw() public returns(bool){\r\n        uint amount = pendingReturn[msg.sender];\r\n        if(amount > 0){\r\n            pendingReturn[msg.sender] = 0;\r\n            if(!msg.sender.send(amount)){\r\n                pendingReturn[msg.sender] = amount;\r\n                return false;\r\n            }\r\n        }\r\n        return true;\r\n    }\r\n\r\n    function auctionEnd() public{\r\n        require(block.timestamp <=auctionStart +  biddingTime, \"time limit execded error\");\r\n        require(ended == false, \"auction ended error\");\r\n        ended = true;\r\n        emit AuctionEnded(highestBidder, highestBid);\r\n        require(!beneficiary.send(highestBid));\r\n    }\r\n\r\n}\r\n",
  "sourcePath": "D:/Ethereum/Auction/contracts/Auction.sol",
  "compiler": {
    "name": "solc",
    "version": "0.5.16+commit.9c3226ce.Emscripten.clang"
  },
  "schemaVersion": "3.3.3",
  "updatedAt": "2021-01-16T16:10:32.885Z",
  "networkType": "ethereum",
  "devdoc": {
    "methods": {}
  },
  "userdoc": {
    "methods": {}
  }
}